:020000040800F2
:1000000014100020A5020008310300083D03000879
:1000100049030008550300086103000880B500AFDC
:10002000054B00221A70054B00221A60012000F0D7
:100030009DF800BF80BD00BF141000200800002004
:1000400080B483B000AF78607B68054A1360054BCD
:10005000054A1A6000BF0C37BD4680BC704700BF20
:1000600008000020181000206D00000880B500AFC7
:100070000B4B01221A700B4B1B68184600F076F8E8
:10008000084B1B68002B05D1074800F053F8054BBF
:1000900001221A60054B064A1A6000BF80BD00BFEE
:1000A000141000200800002040420F00181000200B
:1000B0001D00000880B500AF034B00221A7001201C
:1000C000FFF7BEFF00BF80BD2010002080B500AF4D
:1000D000084B01221A70084B1A68084B1B689A4299
:1000E00002D30020FFF7ACFF054B064A1A6000BFA1
:1000F00080BD00BF201000200C0000200400002064
:100100001C100020B500000880B483B000AF7860F8
:100110007B68054A1360054B054A1A6000BF0C371F
:10012000BD4680BC704700BF0C0000201C100020A2
:10013000CD00000880B483B000AF786002E07B6837
:10014000013B7B607B68002BF9D100BF0C37BD46BB
:1001500080BC704780B400AF034B1B68DBB218460D
:10016000BD4680BC704700BF0808014080B483B022
:1001700000AF78607B68012B06D10A4B1B68094AE7
:1001800043F40053136008E07B68002B05D1054B56
:100190001B68044A23F40053136000BF0C37BD46AC
:1001A00080BC70470C08014080B400AF0F4B1B6847
:1001B0000E4A43F0040313600D4B1B680C4A23F4F2
:1001C000700313600A4B0A4A1B681360094B1B68D3
:1001D000084A23F470031360064B1B68054A43F07A
:1001E0002233136000BFBD4680BC70471810024028
:1001F000000801400408014080B500AFFFF7D4FFBC
:10020000094B0A4A1A600A4B0A4A1A600A4B0B4AFF
:100210001A60094B1B689847034B1B689847044BAF
:100220001B689847F5E700BF1C100020B5000008C8
:10023000181000201D0000082410002041020008B2
:1002400080B500AF094B00221A70FFF783FF034609
:100250001A46074B1A60064B1B681846FFF754FFF7
:10026000044B054A1A6000BF80BD00BF211000206A
:1002700010000020241000207D02000880B500AF8F
:10028000054B01221A704FF47A70FFF753FF034BAE
:10029000034A1A6000BF80BD2110002024100020F6
:1002A0004102000880B586B000AF1C4A1C4BD31A2F
:1002B0007B601C4B7B611A4B3B610023FB600CE0B5
:1002C0007B691A783B691A707B6901337B613B69F2
:1002D00001333B61FB680133FB60FB687A689A423B
:1002E000EED8114A114BD31A3B60104B3B610023EF
:1002F000BB6008E03B6900221A703B6901333B6137
:10030000BB680133BB60BB683A689A42F2D8FFF71A
:1003100073FF00BF1837BD4680BD00BF0800002036
:10032000000000206C0300081400002008000020DA
:1003300080B500AFFFF7B6FF00BF80BD80B500AF4E
:10034000FFF7B0FF00BF80BD80B500AFFFF7AAFF89
:1003500000BF80BD80B500AFFFF7A4FF00BF80BD28
:0C03600080B500AFFFF79EFF00BF80BD1E
:08036C003C0000001400000039
:0400000508000000EF
:00000001FF
