:100000000C942A000C9434000C9434000C943400AA
:100010000C9434000C9434000C9434000C94340090
:100020000C9434000C9434000C9434000C94340080
:100030000C9434000C9434000C9434000C94340070
:100040000C9434000C9434000C9434000C94340060
:100050000C94340011241FBECFE5D8E0DEBFCDBF25
:100060000E9495000C949B000C94000088B3877F3D
:1000700088BB81EE94E00197F1F700C0000088B3DF
:10008000886088BB08958AB31ABA88B3846088BB35
:1000900088B38D7F88BB0E9436008FEF8ABB88B300
:1000A0008B7F88BB0895CF93C82F0E944300CBBBA2
:1000B00088B3897F88BB0E943600CF91089581E084
:1000C0000E945300089587E893E10197F1F700C07B
:1000D000000087B38D6087BB88B3827F88BB8FEFBA
:1000E0008ABB85EA9EE00197F1F700C000000E94FC
:1000F0005F0088E30E94530086E00E94530080E87E
:100100000E9453008FE00E9453000895CF93C82FA0
:100110000E94430088B3826088BBCBBB88B38B7FCF
:1001200088BB0E943600CF9108950E94630081E44D
:0A0130000E948600FFCFF894FFCF75
:00000001FF
