S00C00006D63616C2E737265637B
S11300000C942A000C9449000C9470000C949700F2
S11300100C9447000C9447000C9447000C94470040
S11300200C9447000C9447000C9447000C94470030
S11300300C942E020C9459020C9480020C94A70286
S11300400C9447000C9447000C9447000C94470010
S11300500C94470011241FBECFE5D8E0DEBFCDBF0E
S113006010E0A0E6B0E0E0EAF5E002C005900D92F1
S1130070A636B107D9F720E0A6E6B0E001C01D928C
S1130080A737B207E1F70E94F1000C94CE020C945A
S113009000001F920F920FB60F9211242F933F93DB
S11300A04F935F936F937F938F939F93AF93BF937C
S11300B0EF93FF93E0916600F09167000995FF913B
S11300C0EF91BF91AF919F918F917F916F915F91CC
S11300D04F913F912F910F900FBE0F901F90189545
S11300E01F920F920FB60F9211242F933F934F93A9
S11300F05F936F937F938F939F93AF93BF93EF938C
S1130100FF93E0916800F09169000995FF91EF91E8
S1130110BF91AF919F918F917F916F915F914F911B
S11301203F912F910F900FBE0F901F9018951F9223
S11301300F920FB60F9211242F933F934F935F9317
S11301406F937F938F939F93AF93BF93EF93FF939B
S1130150E0916A00F0916B000995FF91EF91BF91D6
S1130160AF919F918F917F916F915F914F913F914B
S11301702F910F900FBE0F901F901895FC01DB017B
S113018011969C911197913059F491818C9180959D
S11301908923818392818C91809589238283089518
S11301A0923059F49181DB018C918095892381836C
S11301B092818C91892B82830895933029F49181C3
S11301C0DB018C91892B81830895FC01413021F45A
S11301D08281682B6283089592816095692362838A
S11301E00895CF93DF93CDB7DEB72C970FB6F8946D
S11301F0DEBF0FBECDBF0FEF0A871B8611E01C8741
S11302001C821B821A821E821D8380E189831F82C5
S1130210BE016F5F7F4F8DE290E00E94C2018DE2CC
S113022090E00E94E80141E060E186E390E00E94F2
S1130230E50089E08A8740E060E186E390E00E947F
S1130240E500BE01665F7F4F8DE290E00E942602CA
S11302500A87BE01665F7F4F8DE290E00E9426020E
S113026041E060E186E390E00E94E5008BE08A874C
S113027040E060E186E390E00E94E500BE01665F35
S11302807F4F8DE290E00E94260287E08A87BE01BC
S1130290665F7F4F8DE290E00E94260241E060E1BC
S11302A086E390E00E94E5008AE08A8740E060E10E
S11302B086E390E00E94E500BE01665F7F4F8DE219
S11302C090E00E9426028FE08A87BE01665F7F4F1E
S11302D08DE290E00E94260241E060E186E390E036
S11302E00E94E5008CE08A8740E060E186E390E0CC
S11302F00E94E500BE01665F7F4F8DE290E00E94A0
S113030026021A87BE01665F7F4F8DE290E00E944D
S1130310260241E060E186E390E00E94E5008FB7A9
S113032080688FBF81E08B871DC040E060E186E379
S113033090E00E94E500BE01655F7F4F8DE290E092
S11303400E942602BE01645F7F4F8DE290E00E940E
S1130350260241E060E186E390E00E94E5008B859F
S11303608F5F8B878B85893000F38C858F5F8C87BB
S11303702FEF80E792E0215080409040E1F700C0E9
S11303800000D0CFCF93DF93EB0129E0FB01ACE673
S1130390B0E001900D922A95E1F72CE630E030931D
S11303A0760020937500288120643981232B3A81BB
S11303B0232B3B81232BFC0141813D81342B318351
S11303C03C81232B3E81232B2083DF91CF91089501
S11303D01F93CF93DF9300D0CDB7DEB7E0917500C4
S11303E0F09176008081803101F513E01A8380E872
S11303F08983BE016F5F7F4F86E390E00E94BE0059
S113040080E289831A83BE016F5F7F4F86E390E0A9
S11304100E94BE0080E189831A83BE016F5F7F4F13
S113042086E390E00E94BE000BC080E4898383E0F1
S11304308A83BE016F5F7F4F86E390E00E94BE0017
S11304400F900F90DF91CF911F910895FC01DB0174
S11304508C91828391819923ECF708951F920F92D6
S11304600FB60F9211242F933F934F935F936F9383
S11304707F938F939F93AF93BF93EF93FF93E091F9
S11304807500F09176000780F085E02D0995FF91C5
S1130490EF91BF91AF919F918F917F916F915F91F8
S11304A04F913F912F910F900FBE0F901F90189571
S11304B008951F920F920FB60F9211242F933F931A
S11304C04F935F936F937F938F939F93AF93BF9358
S11304D0EF93FF93E0916000F09161000995FF9123
S11304E0EF91BF91AF919F918F917F916F915F91A8
S11304F04F913F912F910F900FBE0F901F90189521
S11305001F920F920FB60F9211242F933F934F9384
S11305105F936F937F938F939F93AF93BF93EF9367
S1130520FF93E0916200F09163000995FF91EF91D0
S1130530BF91AF919F918F917F916F915F914F91F7
S11305403F912F910F900FBE0F901F9018951F92FF
S11305500F920FB60F9211242F933F934F935F93F3
S11305606F937F938F939F93AF93BF93EF93FF9377
S1130570E0916400F09165000995FF91EF91BF91BE
S1130580AF919F918F917F916F915F914F913F9127
S11305902F910F900FBE0F901F901895F894FFCFD6
S10905A058025802580243
S9030000FC
