S00C00006D63616C2E737265637B
S11300000C942A000C943F000C943F000C943F0085
S11300100C943F000C943F000C943F000C943F0060
S11300200C943F000C943F000C943F000C943F0050
S11300300C943F000C943F000C943F000C943F0040
S11300400C943F000C943F000C943F000C943F0030
S11300500C943F0011241FBECFE5D8E0DEBFCDBF16
S113006010E0A0E6B0E0E8E8F5E002C005900D92EB
S1130070A836B107D9F70E949D020C94C2020C94D1
S11300800000FC01DB0111969C911197913059F409
S113009091818C9180958923818392818C91809523
S11300A0892382830895923059F49181DB018C91E4
S11300B080958923818392818C91892B82830895F1
S11300C0933029F49181DB018C91892B81830895EC
S11300D0FC018081862309F081E00895FC01413010
S11300E021F48281682B628308959281609569234B
S11300F062830895FC0162830895FC0122816227D2
S1130100628308951F93CF93DF9300D0CDB7DEB7FA
S113011081E0898312E01A83BE016F5F7F4F86E31B
S113012090E00E94410019831A83BE016F5F7F4FE4
S113013086E390E00E94410084E089831A83BE0133
S11301406F5F7F4F86E390E00E94410088E08983DF
S11301501A83BE016F5F7F4F86E390E00E944100E7
S113016080E1898313E01A83BE016F5F7F4F86E3CA
S113017090E00E94410080E289831A83BE016F5F90
S11301807F4F86E390E00E94410080E489831A83D4
S1130190BE016F5F7F4F86E390E00E94410080E8DC
S11301A089831A83BE016F5F7F4F86E390E00E94CC
S11301B041000F900F90DF91CF911F9108950F93FD
S11301C01F93CF93DF9300E06CC0C0E6D0E041E022
S11301D0688186E390E00E946E0041E0698186E3D5
S11301E090E00E946E0041E06A8186E390E00E9404
S11301F06E0041E06B8186E390E00E946E00E02F88
S1130200F0E0E05AFF4F40E0608186E390E00E9416
S11302106E0010E042C0C12FD0E0FE01EC59FF4F48
S1130220608186E390E00E946800811135C0FE0180
S1130230EC59FF4F608186E390E00E9468008823B8
S1130240B1F3013079F028F00230A9F00330E1F085
S113025023C0112359F1113059F1123059F11330DF
S1130260D9F42AC0112351F1113051F1123051F156
S1130270133091F429C0112349F1113049F112309E
S113028049F1133049F428C0112341F1113041F1EF
S1130290123041F1133041F11F5F143008F4BBCF29
S11302A00F5F043008F491CF81E41FC087E31DC0C1
S11302B084E31BC081E319C08FE317C088E315C032
S11302C085E313C082E311C080E30FC089E30DC04E
S11302D086E30BC083E309C08DE307C08FE205C04A
S11302E08AE203C08DE201C08BE2DF91CF911F91BE
S11302F00F9108951F93CF93DF9300D0CDB7DEB74E
S113030081E0898313E01A83BE016F5F7F4F83E32B
S113031090E00E94410082E089831A83BE016F5FEE
S11303207F4F83E390E00E94410084E089831A8335
S1130330BE016F5F7F4F83E390E00E94410088E03D
S113034089831A83BE016F5F7F4F83E390E00E942D
S1130350410080E189831A83BE016F5F7F4F83E38D
S113036090E00E94410080E289831A83BE016F5F9E
S11303707F4F83E390E00E94410080E489831A83E5
S1130380BE016F5F7F4F83E390E00E94410080E8ED
S113039089831A83BE016F5F7F4F83E390E00E94DD
S11303A041000F900F90DF91CF911F91089540E08D
S11303B060E189E390E00E946E002FE788E391E01A
S11303C0215080409040E1F700C0000041E060E12E
S11303D089E390E00E946E000895682F83E390E023
S11303E00E947A0040E068E089E390E00E946E0099
S11303F040E064E089E390E00E946E008FEC97E0B7
S11304000197F1F700C000000E94D7010895682FFA
S113041083E390E00E947A0040E068E089E390E0A2
S11304200E946E0041E064E089E390E00E946E0067
S11304308FEC97E00197F1F700C000000E94D7010C
S1130440089581E00E94ED0108951F93CF93DF93F7
S113045000D0CDB7DEB78FE295E70197F1F700C082
S1130460000084E0898313E01A83BE016F5F7F4F2D
S113047089E390E00E94410088E089831A83BE01E9
S11304806F5F7F4F89E390E00E94410080E18983A0
S11304901A83BE016F5F7F4F89E390E00E944100A1
S11304A00E947A0140E060E189E390E00E946E00DE
S11304B040E064E089E390E00E946E0040E068E080
S11304C089E390E00E946E008FE295E70197F1F7CF
S11304D000C000000E94210288E30E94ED0186E032
S11304E00E94ED0180E80E94ED018FE00E94ED0181
S11304F00F900F90DF91CF911F910895CF93DF93C9
S113050000D0CDB7DEB781E0898383E08A83BE0162
S11305106F5F7F4F89E390E00E94410082E089830E
S11305208A83BE016F5F7F4F89E390E00E944100A0
S11305300F900F90DF91CF9108950E947E020E9448
S113054082000E9425020E94DF00813439F08F333B
S113055019F40E94210202C00E94070262E089E3AA
S113056090E00E9468008111EECF61E089E390E0A1
S11305700E947D0062E089E390E00E946800882385
S10B0580C9F3E1CFF894FFCFA9
S10B0588102040800102040868
S9030000FC
