S00C00006D63616C2E737265637B
S11300000C942A000C94E1000C9408010C942F0128
S11300100C9447000C9447000C9447000C94470040
S11300200C9447000C9447000C9447000C94470030
S11300300C9447000C9447000C9447000C94470020
S11300400C9447000C9447000C9447000C94470010
S11300500C94470011241FBECFE5D8E0DEBFCDBF0E
S113006010E0A0E6B0E0E2E5F6E002C005900D92F3
S1130070A837B107D9F720E0A8E7B0E001C01D9286
S1130080A038B207E1F70E94E4020C9427030C9411
S113009000000F931F93CF93DF9300D000D0CDB710
S11300A0DEB78C01DC0113968C911397898381E070
S11300B08A83BE016F5F7F4F11968D919C91129739
S11300C00E945601F8018081823018F4E5E5F0E0E1
S11300D002C0E4E5F0E0882321F0813021F482E0DD
S11300E003C080E001C086E08B83E535F10571F43F
S11300F02B8183E090E002C0880F991F2A95E2F7D4
S1130100809590959081892380830DC02B8181E017
S113011090E002C0880F991F2A95E2F78095909588
S1130120908189238083D80116968C9116972B8110
S113013090E002C0880F991F2A95E2F79081892BDD
S11301408083EC91F0E017968D919C911897EE0FB7
S1130150FF1FE658FF4F918380838C91882321F001
S1130160813021F487E003C086E001C085E08C8300
S1130170F8018185813061F42C8181E090E002C036
S1130180880F991F2A95E2F79BB7892B8BBF0DC067
S11301902C8181E090E002C0880F991F2A95E2F734
S11301A0809590959BB789238BBF0F900F900F90EC
S11301B00F90DF91CF911F910F9108950E944900F4
S11301C008951F920F920FB60F9211242F933F930D
S11301D04F935F936F937F938F939F93AF93BF934B
S11301E0EF93FF93E0917A00F0917B000995FF91E2
S11301F0EF91BF91AF919F918F917F916F915F919B
S11302004F913F912F910F900FBE0F901F90189513
S11302101F920F920FB60F9211242F933F934F9377
S11302205F936F937F938F939F93AF93BF93EF935A
S1130230FF93E0917C00F0917D000995FF91EF918F
S1130240BF91AF919F918F917F916F915F914F91EA
S11302503F912F910F900FBE0F901F9018951F92F2
S11302600F920FB60F9211242F933F934F935F93E6
S11302706F937F938F939F93AF93BF93EF93FF936A
S1130280E0917E00F0917F000995FF91EF91BF917D
S1130290AF919F918F917F916F915F914F913F911A
S11302A02F910F900FBE0F901F901895FC01DB014A
S11302B011969C911197913059F491818C9180956C
S11302C08923818392818C918095892382830895E7
S11302D0923059F49181DB018C918095892381833B
S11302E092818C91892B82830895933029F4918192
S11302F0DB018C91892B81830895FC01413021F429
S11303008281682B62830895928160956923628358
S11303100895FC01628308951F93CF93DF9300D067
S1130320CDB7DEB781E0898313E01A83BE016F5F26
S11303307F4F83E390E00E94560182E089831A8311
S1130340BE016F5F7F4F83E390E00E94560184E01B
S113035089831A83BE016F5F7F4F83E390E00E941D
S1130360560188E089831A83BE016F5F7F4F83E360
S113037090E00E94560180E189831A83BE016F5F79
S11303807F4F83E390E00E94560180E289831A83C1
S1130390BE016F5F7F4F83E390E00E94560180E4CB
S11303A089831A83BE016F5F7F4F83E390E00E94CD
S11303B0560180E889831A83BE016F5F7F4F83E310
S11303C090E00E9456010F900F90DF91CF911F9102
S11303D0089540E060E189E390E00E947D012FE709
S11303E088E391E0215080409040E1F700C0000094
S11303F041E060E189E390E00E947D010895682F67
S113040083E390E00E94890140E068E089E390E0A2
S11304100E947D0140E064E089E390E00E947D0158
S11304208FEC97E00197F1F700C000000E94E9010A
S11304300895682F83E390E00E94890140E068E01A
S113044089E390E00E947D0141E064E089E390E06B
S11304500E947D018FEC97E00197F1F700C0000046
S11304600E94E901089581E00E94FF0108951F930D
S1130470CF93DF9300D0CDB7DEB78FE295E7019736
S1130480F1F700C0000084E0898313E01A83BE0101
S11304906F5F7F4F89E390E00E94560188E0898373
S11304A01A83BE016F5F7F4F89E390E00E9456017B
S11304B080E189831A83BE016F5F7F4F89E390E0F7
S11304C00E9456010E948C0140E060E189E390E0C3
S11304D00E947D0140E064E089E390E00E947D0198
S11304E040E068E089E390E00E947D018FE295E7B7
S11304F00197F1F700C000000E94330288E30E94D4
S1130500FF0186E00E94FF0180E80E94FF018FE066
S11305100E94FF010F900F90DF91CF911F910895DA
S1130520CF93DF93C82FD62F813031F4603120F47C
S113053080E8860F0E94FF01C23031F4D03120F4EC
S113054080EC8D0F0E94FF01DF91CF9108950F93EE
S11305501F93CF93DF938C01C0E0D0E018C02196A5
S11305600F5F1F4F0E941902C031D10529F460E0CA
S113057082E00E9490020BC0C032D10541F40E9477
S1130580330260E081E00E949002C0E0D0E0F80114
S113059080818111E4CFDF91CF911F910F91089554
S11305A081E090E0909379008093780087E690E072
S11305B00E94A7022FEF81E19AE7215080409040EA
S11305C0E1F700C000000895CF93DF93CDB7DEB705
S11305D02A970FB6F894DEBF0FBECDBF87E0E0E6E2
S11305E0F0E0DE01119601900D928A95E1F781E029
S11305F08A8780ED92E099878887CE0101960E94D0
S1130600DE008FB780688FBF0E94370281E40E94AA
S113061019022FEF89E698E1215080409040E1F7DC
S113062000C000000E94330281E090E090937900C2
S11306308093780080917800909179000197D1F7A8
S11306400E9433021092790010927800F3CFF8944C
S1050650FFCFD6
S113065200300004000202494E54302069732077AE
S10B06626F726B696E67000002
S9030000FC
