:100000000C942A000C9449000C9470000C949700F6
:100010000C9447000C9447000C9447000C94470044
:100020000C9447000C9447000C9447000C94470034
:100030000C9447000C9419030C9440030C94670330
:100040000C9447000C9447000C9447000C94470014
:100050000C94470011241FBECFE5D8E0DEBFCDBF12
:1000600010E0A0E6B0E0E0E2F7E002C005900D92FB
:10007000AE36B107D9F720E0AEE6B0E001C01D9280
:10008000A437B207E1F70E9402020C948E030C948D
:1000900000001F920F920FB60F9211242F933F93DF
:1000A0004F935F936F937F938F939F93AF93BF9380
:1000B000EF93FF93E0916E00F0916F000995FF912F
:1000C000EF91BF91AF919F918F917F916F915F91D0
:1000D0004F913F912F910F900FBE0F901F90189549
:1000E0001F920F920FB60F9211242F933F934F93AD
:1000F0005F936F937F938F939F93AF93BF93EF9390
:10010000FF93E0917000F09171000995FF91EF91DC
:10011000BF91AF919F918F917F916F915F914F911F
:100120003F912F910F900FBE0F901F9018951F9227
:100130000F920FB60F9211242F933F934F935F931B
:100140006F937F938F939F93AF93BF93EF93FF939F
:10015000E0917200F09173000995FF91EF91BF91CA
:10016000AF919F918F917F916F915F914F913F914F
:100170002F910F900FBE0F901F901895FC01DB017F
:1001800011969C911197913059F491818C918095A1
:100190008923818392818C9180958923828308951C
:1001A000923059F49181DB018C9180958923818370
:1001B00092818C91892B82830895933029F49181C7
:1001C000DB018C91892B81830895FC01413021F45E
:1001D0008281682B6283089592816095692362838E
:1001E0000895FC01628308951F93CF93DF9300D09D
:1001F000CDB7DEB781E0898313E01A83BE016F5F5C
:100200007F4F83E390E00E94BE0082E089831A83DF
:10021000BE016F5F7F4F83E390E00E94BE0084E0E9
:1002200089831A83BE016F5F7F4F83E390E00E9452
:10023000BE0088E089831A83BE016F5F7F4F83E32E
:1002400090E00E94BE0080E189831A83BE016F5F47
:100250007F4F83E390E00E94BE0080E289831A838F
:10026000BE016F5F7F4F83E390E00E94BE0080E499
:1002700089831A83BE016F5F7F4F83E390E00E9402
:10028000BE0080E889831A83BE016F5F7F4F83E3DE
:1002900090E00E94BE000F900F90DF91CF911F91D0
:1002A000089540E060E189E390E00E94E5002FE7D7
:1002B00088E391E0215080409040E1F700C00000C9
:1002C00041E060E189E390E00E94E5000895682F35
:1002D00083E390E00E94F10040E068E089E390E071
:1002E0000E94E50040E064E089E390E00E94E500C0
:1002F0008FEC97E00197F1F700C000000E945101D8
:100300000895682F83E390E00E94F10040E068E0E8
:1003100089E390E00E94E50041E064E089E390E039
:100320000E94E5008FEC97E00197F1F700C0000014
:100330000E945101089581E00E94670108951F9372
:10034000CF93DF9300D0CDB7DEB78FE295E701976B
:10035000F1F700C0000084E0898313E01A83BE0136
:100360006F5F7F4F89E390E00E94BE0088E0898341
:100370001A83BE016F5F7F4F89E390E00E94BE0049
:1003800080E189831A83BE016F5F7F4F89E390E02C
:100390000E94BE000E94F40040E060E189E390E02A
:1003A0000E94E50040E064E089E390E00E94E500FF
:1003B00040E068E089E390E00E94E5008FE295E785
:1003C0000197F1F700C000000E949B0188E30E94A2
:1003D000670186E00E94670180E80E9467018FE064
:1003E0000E9467010F900F90DF91CF911F910895A8
:1003F00061E080E690E00E94F902809160000E9436
:1004000081010895CF93DF93CDB7DEB72F970FB655
:10041000F894DEBF0FBECDBF86E0E8E6F0E0DE0177
:100420001A9601900D928A95E1F788EF91E09B87EB
:100430008A8783E390E09B838A83198283E08D839C
:100440001E821F828887CE0101960E943A020E9476
:100450009F0186E70E9481012FE788E391E0215008
:1004600080409040E1F700C000008FB780688FBFE8
:10047000FFCF0895FC018AB1877E8AB98FB78F7745
:100480008FBF818189B980B58F7780BD89B1807F29
:1004900089B999B182818F70892B89B98081823025
:1004A000A8F480B5806880BD80B58E7F80BD80B5A2
:1004B0008F7B80BD8BB18D7F8BB92BB19081892FC4
:1004C00090E0880F991F822B8BB91CC08BB18D7F58
:1004D0008BB980B5806880BD80B5806480BD87B3EE
:1004E0008D7F87BB87B39081292F217030E0220F49
:1004F000331F282B27BB80B5806880BD90B58381D2
:10050000892B80BD8AB18B7F8AB980B5806880BD18
:1005100080B5897F80BD20B594819370892F90E04C
:10052000880F991F822B80BD2AB19481969596954C
:10053000892F90E0880F991F880F991F822B8AB905
:1005400080B5806880BD80B58F7C80BD20B59581E9
:1005500030E1939FC0011124822B80BD80B580685B
:1005600080BD80B5877F80BD20B59681892F90E0C2
:10057000880F991F880F991F880F991F822B80BDA4
:100580008185928522E08933920739F09093630048
:10059000809362008AB180688AB98585968532E049
:1005A0008933930739F090936700809366008AB18E
:1005B00080648AB98385948522E08933920739F073
:1005C00090936500809364008AB180628AB92AB1F1
:1005D0009781892F90E0880F991F880F991F880FA6
:1005E000991F822B8AB908958BB1881F8827881F8D
:1005F00008950F931F93CF93DF93EC01611104C013
:100600000E94F4028823E1F3529B0AC08AB18695C6
:1006100081709CB1182F00E0092B1983088304C056
:100620008CB190E099838883DF91CF911F910F91D6
:1006300008951F920F920FB60F9211242F933F939C
:100640004F935F936F937F938F939F93AF93BF93DA
:10065000EF93FF93E0916200F09163000995FF91A1
:10066000EF91BF91AF919F918F917F916F915F912A
:100670004F913F912F910F900FBE0F901F901895A3
:100680001F920F920FB60F9211242F933F934F9307
:100690005F936F937F938F939F93AF93BF93EF93EA
:1006A000FF93E0916400F09165000995FF91EF914F
:1006B000BF91AF919F918F917F916F915F914F917A
:1006C0003F912F910F900FBE0F901F9018951F9282
:1006D0000F920FB60F9211242F933F934F935F9376
:1006E0006F937F938F939F93AF93BF93EF93FF93FA
:1006F000E0916600F09167000995FF91EF91BF913D
:10070000AF919F918F917F916F915F914F913F91A9
:100710002F910F900FBE0F901F901895F894FFCF58
:0E0720006B00390239023902390239023902FE
:00000001FF
